:020000040800F2
:10000000881C0020D50C0008DD0C0008DF02000869
:10001000E10C0008E30C0008E50C000800000000FB
:10002000000000000000000000000000E70C0008D5
:10003000E90C00080000000067020008B136000863
:10004000EF0C0008EF0C0008EF0C0008EF0C0008A4
:10005000EF0C0008EF0C0008710E0008BF0E00083E
:10006000D10E0008E30E0008F50E0008EF0C0008A2
:10007000EF0C0008EF0C0008EF0C0008EF0C000874
:10008000EF0C0008EF0C0008EF0C0008EF0C000864
:10009000EF0C0008EF0C0008EF0C0008070F000839
:1000A000EF0C0008EF0C0008EF0C0008EF0C000844
:1000B000C1370008D9370008F1370008EF0C0008F5
:1000C000EF0C0008EF0C0008EF0C0008EF0C000824
:1000D000EF0C00080D3F0008253F0008EF0C00085A
:1000E000830E0008EF0C0008EF0C0008EF0C00086E
:1000F000EF0C0008EF0C0008EF0C0008EF0C0008F4
:10010000EF0C0008EF0C000809380008EF0C00089D
:10011000EF0C0008EF0C0008EF0C0008EF0C0008D3
:10012000EF0C0008EF0C0008EF0C0008EF0C0008C3
:1001300000F002F800F069F80AA090E8000C824490
:100140008344AAF10107DA4501D100F05EF8AFF26D
:10015000090EBAE80F0013F0010F18BFFB1A43F0A5
:100160000103184770580100905801000A444FF0ED
:10017000000C10F8013B13F0070408BF10F8014B06
:100180001D1108BF10F8015B641E05D010F8016B4B
:10019000641E01F8016BF9D113F0080F1EBF10F8AF
:1001A000014BAD1C0C1B09D16D1E58BF01F801CBD2
:1001B000FAD505E014F8016B01F8016B6D1EF9D555
:1001C0009142D6D37047000000230024002500266A
:1001D000103A28BF78C1FBD8520728BF30C148BFAA
:1001E0000B6070471FB59DE8030000F091FB00F025
:1001F00029FD04000020002111F06AFC401C606011
:1002000000F0AFFD1FBD10B510BD00F0F5FC1146AC
:10021000FFF7E8FF00F0A6FD00F026FD03B4FFF7AE
:10022000F2FF03BC00F076FD002804D090FAA0F0A5
:10023000B0FA80F0401C7047EFF3108072B6704740
:1002400080F310887047334A1368012B04D04FF0B5
:1002500001031360304A1060304A116030484FF09B
:10026000805101607047EFF3108272B6294801682F
:1002700091B14FF0000101602748016829B1EFF307
:10028000098121E9F00F00680160244909680968C3
:10029000B1E8F00F81F3098882F310884EF0040E64
:1002A00070471E4908601C494FF00000086019495A
:1002B0004FF0010008601B484FF47F01D0F8002088
:1002C00041EA0201016016484FF080510160164872
:1002D0000068006880F3088861B662B670471EF057
:1002E000040F0CBFEFF30880EFF3098020E9F00F53
:1002F00040F804ED1EF0040F0CBF80F3088880F373
:10030000098800B50CF016FD5DF804EB4EF0040E04
:1003100070470000980400209004002094040020FE
:1003200004ED00E020ED00E008ED00E070B50D46C2
:100330000646041F00F0CCFAD0F800C0C5B1E6B103
:1003400005F10B0020F00703AB423CBF002070BD5D
:100350002068984238BFDCF8042013D3C11A08295A
:100360002FD3E01840F8041B236000F02FFB28E097
:10037000304600F02BFB002070BD2846BDE87040E1
:1003800000F0F5BA002A18BFA2423CBF944652685A
:10039000F8D30119914216D111680844984212D33A
:1003A000C11A08293CBF2060506808D35168E01882
:1003B0004160216812681144C91A01602360CCF8B9
:1003C0000400201D70BD181F00F0D1FA050007D0F1
:1003D00021680A1F211D00F094F9201D00F0F6FA93
:1003E000284670BD53EA020C00F069802DE9F04BFD
:1003F0004FF00006002B1FBFB3FA83F503FA05F494
:1004000024FA05F65E4012BF1643B2FA82F502FAEC
:1004100005F4C5F120051EBF22FA05FC44EA0C04D0
:10042000203556EA044C4FEA144418BF641C4FF0C0
:1004300000084FF00009904271EB030C39D30029FA
:1004400019BFB1FA81F701FA07F6B0FA80F700FA9E
:1004500007F6C7F120071EBF20FA07FC46EA0C0684
:100460002037B6FBF4FCA7EB0507103F07F01F0B86
:10047000CBF120060CFA0BFB2CFA06F644BFB34670
:100480000026202FA4BF5E464FF0000B5BEA060C4F
:1004900008BF4FF0010B19EB0B09ABFB027C48EBDB
:1004A0000608C01B06FB02CC0BFB03CC71EB0C0156
:1004B000C1E70B46024641464846BDE8F08B13B5FE
:1004C0004FF000004FF00001AFF30080BDE81C408A
:1004D000704770B5064600F0FFF9046805463046DF
:1004E0000A22002100F0A4FA2C6070BD40EA01034A
:1004F00010B59B070FD1042A0DD310C808C9121FCD
:100500009C42F8D020BA19BA884201D9012010BD06
:100510004FF0FF3010BD1AB1D30703D0521C07E0D3
:10052000002010BD10F8013B11F8014B1B1B07D137
:1005300010F8013B11F8014B1B1B01D1921EF1D1A8
:10054000184610BD40EA0103024630B59B0710D1A2
:100550004FF0013400E008C208C91D1B9D4315EA95
:10056000C41FF8D013F0FF0102F8011B0DD01B0AC5
:10057000F8E711F8013B002B02F8013B05D011F818
:10058000013B002B02F8013BF3D130BD10B5431CF9
:1005900002E010F8011B71B18107FAD14FF001326E
:1005A00002C88C1A8C4314EAC211F9D0C01A0A0688
:1005B00003D0C01E10BDC01A10BD0A0401D0801E99
:1005C00010BD0902FCD0401E10BD40EA010370B509
:1005D0009B072ED14FF00136042A2AD308C810C930
:1005E0009D1B9D43121F15EAC61517D0D8B2E1B264
:1005F000401A50EA056110D198B2A1B2401A50EAEF
:1006000005410AD123F07F4024F07F41401A50EA8F
:10061000052102D1180EA0EB146070BDA342DBD0FF
:1006200018BA21BA884201D9012070BD4FF0FF30BD
:1006300070BD0AB9002070BD10F8013B11F8014BE4
:1006400063B1A3420AD1521E08D010F8013B11F841
:10065000014B1BB1A34201D1521EEDD1181B70BD3D
:10066000421E12F8013F002BFBD111F8013B002B79
:1006700002F8013BF9D17047032A40F2308010F0B4
:10068000030C00F0158011F8013BBCF1020F62442D
:1006900098BF11F801CB00F8013B38BF11F8013BBE
:1006A000A2F1040298BF00F801CB38BF00F8013B6B
:1006B00011F0030300F02580083AC0F0088051F8DB
:1006C000043B083A51F804CBA0E80810F5E7121DE6
:1006D0005CBF51F8043B40F8043BAFF30080D20705
:1006E00024BF11F8013B11F801CB48BF11F8012BD1
:1006F00024BF00F8013B00F801CB48BF00F8012BF4
:10070000704710B5203AC0F00B80B1E81850203A7D
:10071000A0E81850B1E81850A0E81850BFF4F5AFA1
:100720005FEA027C24BFB1E81850A0E8185044BF2B
:1007300018C918C0BDE810405FEA827C24BF51F898
:10074000043B40F8043B08BF7047D20728BF31F88C
:10075000023B48BF11F8012B28BF20F8023B48BFDD
:1007600000F8012B70474FF000020429C0F01280FE
:1007700010F0030C00F01B80CCF1040CBCF1020F54
:1007800018BF00F8012BA8BF20F8022BA1EB0C0129
:1007900000F00DB85FEAC17C24BF00F8012B00F81F
:1007A000012B48BF00F8012B70474FF0000200B545
:1007B000134694469646203922BFA0E80C50A0E884
:1007C0000C50B1F12001BFF4F7AF090728BFA0E832
:1007D0000C5048BF0CC05DF804EB890028BF40F8FE
:1007E000042B08BF704748BF20F8022B11F0804F40
:1007F00018BF00F8012B704710B5044610F0030F26
:1008000008BF11F0030F40F015804FF0013E121F9A
:10081000C0F20E8051F8043BA3EB0E0C2CEA030C43
:100820001CEACE1C08BF40F8043BF0D0A1F1040143
:1008300002F10402521E08DB11F8013B002B00F804
:10084000013BF7D11146FFF78EFF204610BD000097
:100850004FF0013C50F8042B51F8043B9A4221D14F
:10086000A2EB0C03934313EACC1317D150F8042BDB
:1008700051F8043B9A4215D1A2EB0C03934313EABF
:10088000CC130BD150F8042B51F8043B9A4209D1F8
:10089000A2EB0C03934313EACC13DBD04FF0000020
:1008A000704700BFD01A01BAB1FA81F101F0180106
:1008B00022FA01F0CB40C1F12001DBB2C0B2C01A74
:1008C0002CFA01F3D11A914311EAC311E6D1704712
:1008D0000048704730160020004870472816002056
:1008E000704770477047704738B504460A46002085
:1008F000694600F064F9002808BF38BD0246009937
:10090000204600F0E0F8012038BD012000F044B995
:10091000F8B500F049F9054600200C46102000BF4C
:100920000646A819A0420DD932466946002000F0BB
:1009300046F9070008BF00F02FF90098A04218BF41
:100940000546C419FFF7C4FF05600746F01D20F0F7
:1009500007004619284600F0AFF8B44208BFF8BDBA
:10096000A21B31463868BDE8F84000F0ACB870B55D
:100970000646FFF7ADFF056806F10B0020F00704FF
:10098000B4429CBF002070BD2B466A68BAB11068A3
:10099000A04210D304F1080188423CBF506858605F
:1009A00007D35168101941601168091B0160586034
:1009B0001460101D70BD13465268002AE7D121460D
:1009C0002846FFF791FF0028DED170BD70B50446C0
:1009D000051FFFF77DFF0068002C14BF446870BD41
:1009E000002C18BFAC423CBF20466468F8D30168B5
:1009F0000A18AA4218BF456003D12A680546114467
:100A0000016028684119A1421CBF6C6070BD61681B
:100A1000696021680844286070BD10B5FFF75CFF6D
:100A2000006810BD10B50446FFF756FF046010BD06
:100A30002DE9F04791460F4680460446002614F8FB
:100A4000015B2DB100F030F80068405DC007F6D1C1
:100A50002B2D02D02D2D18D0641E4A463946204633
:100A600000F04BF827B13968A14201D1C7F80080E6
:100A70004FF0020471050BD54042002803DDFFF75B
:100A80002BFF0460A007BDE8F08746F48066E4E72A
:100A90000028F8DAFFF720FF04606FF00040F2E76B
:100AA000004870472816002010B500F0CBF8001D54
:100AB00010BD00BF1D10010000210160C0E9011040
:100AC000704710207047034640688C46002818BFC6
:100AD00088423CBF03464068F8D3186818448842EF
:100AE00007D00CF1030020F00700001D411A521A34
:100AF0000146081D0A60FFF769BF2DE9F05F8246D5
:100B000015468B4600270AF10104B94600783028C3
:100B100001D09DB113E014F8010B0127782803D010
:100B2000582801D045B10AE00DB1102D07D100279A
:100B300014F8010B102502E0082500E00A25002624
:100B4000B0460EE005FB080005FB06F101271FFA81
:100B500080F801EB1046B6F5803F00D3B94614F893
:100B6000010B294600F072F80028EBDABBF1000F08
:100B700005D00FB1641E00E05446CBF80040B9F137
:100B8000000F06D0FFF7A8FE02210160C81EBDE8D5
:100B9000F09F48EA0640FAE710B500F073F8BDE8A8
:100BA000104000F06AB80000124B694600F5805210
:100BB0008A421A6001D8114670471960704730B5F3
:100BC0000C4D6B46A3F580532C6822449A420FD8F3
:100BD0009B1A02F5805003EBD37302EB6303984238
:100BE00000D91846C01D20F007020C60101B2A60B7
:100BF00030BD0000A00500207546FFF751FFAE464E
:100C000005006946534620F00700854618B020B518
:100C100000F06EF8BDE820404FF000064FF00007EE
:100C20004FF000084FF0000B21F00701AC46ACE894
:100C3000C009ACE8C009ACE8C009ACE8C0098D4601
:100C40007047000000487047481600203A2800D23C
:100C5000303820F02002412A01D3A2F13700884227
:100C600001D34FF0FF30704710B50446AFF300805A
:100C70002046BDE81040FFF7D1BA002801D000F0AF
:100C800049B8704710B5012805D0002103A000F035
:100C900048F8012010BD09A1F8E700005349475268
:100CA000544D454D3A204F7574206F66206865613C
:100CB00070206D656D6F7279000000003A20486504
:100CC0006170206D656D6F727920636F72727570DF
:100CD000746564000948804709480047FEE7FEE75D
:100CE000FEE7FEE7FEE7FEE7FEE7FEE7FEE7FEE7DC
:100CF00004480549054A064B70470000693700085B
:100D00003101000888160020881C00208818002067
:100D10008818002001491820ABBEFEE7260002001B
:100D2000704770B505460C460A2000E06D1C00F0C7
:100D300011F835B128780028F8D102E0641C00F0E1
:100D400009F814B120780028F8D1BDE870400A20D5
:100D5000AFF3008008B569468DF800000320ABBEF4
:100D600008BD704710B50FF02CFC002010BD70B509
:100D7000044600252068806800F00100F0B120687A
:100D8000806820F001002168886000F0F1FF0546CE
:100D90000EE000F0EDFF401B022809D9A06A40F0E8
:100DA0001000A062E06A40F00100E062012070BD26
:100DB0002068806800F001000028EAD10020F6E7F2
:100DC00038B504460025002000902068806800F0B7
:100DD000010080BB2068806840F0010021688860C5
:100DE000164800681649B0FBF1F0009002E0009848
:100DF000401E009000980028F9D100F0B9FF054688
:100E000013E000F0B5FF401B02280ED9A06A40F0A5
:100E10001000A062E06A40F00100E06200BF002024
:100E200084F8240000BF012038BD2068806800F0ED
:100E300001000028E5D00020F6E70000A80400200B
:100E400040420F0030B590F840500124AC40C56BD3
:100E50006C60046863604468102C04D10468A2606C
:100E60000468E16003E00468A1600468E26030BDEA
:100E700010B50CF021FC012000F0BEFD0CF046FC8A
:100E800010BD10B50CF018FC4FF4806000F0B4FDFC
:100E90004FF4006000F0B0FD4FF4805000F0ACFD66
:100EA0004FF4005000F0A8FD4FF4804000F0A4FD86
:100EB0004FF4004000F0A0FD0CF028FC10BD10B570
:100EC0000CF0FAFB022000F097FD0CF01FFC10BDA7
:100ED00010B50CF0F1FB042000F08EFD0CF016FCB8
:100EE00010BD10B50CF0E8FB082000F085FD0CF0FB
:100EF0000DFC10BD10B50CF0DFFB102000F07CFDE8
:100F00000CF004FC10BD10B50CF0D6FB202000F056
:100F100073FD402000F070FD802000F06DFD4FF467
:100F2000807000F069FD4FF4007000F065FD0CF07A
:100F3000EDFB10BD38B5024600230020009000BF35
:100F400092F82400012801D1022038BD012082F846
:100F5000240000BF4868072812D21068406B0C7943
:100F6000641E04EB84051F24AC40A0430D796D1E64
:100F700005EB85050C68AC4020431468606327E0EE
:100F800048680D2812D21068006B0C79E41F04EB3E
:100F900084051F24AC40A0430D79ED1F05EB8505AA
:100FA0000C68AC4020431468206311E01068C06AEC
:100FB0000C790D3C04EB84051F24AC40A0430D7953
:100FC0000D3D05EB85050C68AC4020431468E062DC
:100FD00008680A2812D31068C0680C780A3C04EB31
:100FE00044050724AC40A0430D780A3D05EB4505B8
:100FF0008C68AC4020431468E0600FE01068006922
:101000000C7804EB44050724AC40A0430D7805EBB5
:1010100045058C68AC40204314682061086810289E
:1010200002D00868112827D1174C1068A0421ED1A1
:101030001068806800F40000F0B91068806840F41F
:1010400000001468A0600868102815D10F480068D7
:101050000F4CB0FBF4F000EB80004000009002E089
:101060000098401E009000980028F9D104E0906A92
:1010700040F020009062012300BF002082F824008D
:1010800000BF184661E7000000240140A8040020CA
:1010900040420F0001460868C06C70472DE9F041DE
:1010A0000446002700250026A84614B90120BDE803
:1010B000F081A06810B1207D00B100BFA06A30B9F6
:1010C0000020E06284F82400204600F097F82046D3
:1010D000FFF74DFE0746A06A00F01000002873D10C
:1010E000002F7ED1A06A20F4885040F00200A06258
:1010F0003F4AD4E90001904208D1E069B0F5402FA1
:1011000002D14FF4002002E0E06900E0E069014311
:10111000207B41EA40000643A068B0F5807F02D002
:10112000A068012802D14FF4807000E00020054340
:10113000207D012811D1207B38B9A069401E4FF4D1
:10114000006141EA4030054307E0A06A40F020001A
:10115000A062E06A40F00100E0622068406820F48C
:101160006940284321684860206880682149084018
:10117000304321688860A068B0F5807F02D0A06805
:10118000012802D14FF4807000E00020B0F5807F8C
:1011900003D1208A401E4FEA00582068C06A20F41C
:1011A000700040EA08002168C8622068806812491F
:1011B0000840B04209D10020E062A06A20F002009D
:1011C00040F00100A06211E00BE0A06A20F00200F4
:1011D00040F01000A062E06A40F00100E0620127E8
:1011E00004E0A06A40F01000A062012738465EE7E4
:1011F000003C0140FDF7E1FFFE0E1FFF10B586B079
:101200000446002002900390049005901449206841
:10121000884222D100BF1348806940F40070114910
:1012200088610846806900F40070019000BF00BF2B
:1012300000BF0846806940F0040088610846806964
:1012400000F00400019000BF00BF202002900320A6
:10125000039002A9044800F0DDFB06B010BD0000B9
:10126000002401400010024000080140F8B5044687
:101270000D46002600200090002700F079FD06466C
:101280002068806800F4807050B1A06A40F02000AF
:10129000A06200BF002084F8240000BF0120F8BD38
:1012A0002068406800F48070F8B92068C06A00F4D3
:1012B0007000D0B912E0681C80B125B100F058FD73
:1012C000801BA8420AD9A06A40F00400A06200BFB7
:1012D000002084F8240000BF0320E0E720680068B5
:1012E00000F002000028E6D050E0022000F01CFED2
:1012F00036490968B1FBF0F021680969344A1140A8
:1013000091B92168C9689211114069B921680969C8
:10131000304A114031B92168C9689211114009B9A8
:10132000142117E0292115E021680969294A114093
:1013300021B92168C9689211114041B12168096938
:10134000254A114029B92168C968114009B95421B9
:1013500000E0FC2100FB01F715E0681C80B125B11D
:1013600000F006FD801BA8420AD9A06A40F00400E4
:10137000A06200BF002084F8240000BF03208EE795
:101380000098401C00900098B842E6D36FF012001D
:1013900021680860A06A40F40070A062206880683C
:1013A00000F46020B0F5602F0DD1207B58B9A06A01
:1013B00020F48070A062A06A00F4805018B9A06A7E
:1013C00040F00100A062002069E70000A8040020AE
:1013D00024499224922449124992240070B504466B
:1013E000002500BF94F82400012801D1022070BD1F
:1013F000012084F8240000BF2046FFF7E1FC0546E9
:10140000002D77D1A06A40F20121884340F480701A
:10141000A0623C492068884208D13B48006800F43B
:10142000702008B9012002E0002000E0012078B11E
:10143000A06A20F48010A0622068406800F48060F8
:1014400000B3A06A20F4005040F48050A06219E07C
:10145000A06A40F48010A0622B49091F20688842CE
:1014600003D028492068884204D12748006800F446
:10147000806000E0002028B1A06A20F4005040F411
:101480008050A062A06A00F4805020B1E06A20F091
:101490000600E06201E00020E06200BF002084F866
:1014A000240000BFC01E216808602068806800F426
:1014B0006020B0F5602F16D112492068884208D10B
:1014C0001148006800F4702008B9012002E00020F3
:1014D00000E0012038B12068806840F4A000216855
:1014E00088600CE006E02068806840F48010216885
:1014F000886004E000BF002084F8240000BF284674
:1015000075E70000002801400424014070B504463E
:10151000002594F82100022803D00420A0630125AF
:10152000C1E02068006820F00E0021680860206893
:10153000006820F00100216808605C49206888424A
:1015400052D95A4978392068884201D1012047E0B0
:10155000564964392068884201D1102040E053493F
:1015600050392068884201D1801539E04F493C3913
:101570002068884201D1801432E04C492839206823
:10158000884202D14FF480302AE04849143920685B
:10159000884202D14FF4801022E0444920688842FA
:1015A00001D140041CE042492068884201D1012059
:1015B00016E03F4914312068884201D110200FE025
:1015C0003B4928312068884201D1801508E038491C
:1015D0003C312068884201D1801401E04FF4803012
:1015E0003349091F086051E0304978392068884242
:1015F00001D1012047E02D4964392068884201D19A
:10160000102040E0294950392068884201D18015D6
:1016100039E026493C392068884201D1801432E003
:10162000224928392068884202D14FF480302AE0CC
:101630001E4914392068884202D14FF4801022E0FC
:101640001A492068884201D140041CE018492068EA
:10165000884201D1012016E01549143120688842E2
:1016600001D110200FE0124928312068884201D1B1
:10167000801508E00E493C312068884201D1801471
:1016800001E04FF48030094980394860012084F836
:10169000210000BF002084F8200000BF606B10B163
:1016A0002046616B8847284670BD000080000240DC
:1016B00008040240014609B9012070470868006823
:1016C00020F001000A68106000200A6810600A68B3
:1016D00050600A6890600A68D060174A08689042B3
:1016E0000BD2164A0868801A1422B0FBF2F0800070
:1016F000086412480838C8630AE00F4A0868801A6C
:101700001422B0FBF2F0800008640B480838C8636C
:1017100091F8402001209040CA6B50600020886200
:10172000C86208634863886381F8210000BF81F8BC
:10173000200000BF00BFC0E70804024008000240CC
:101740000146002209B9012070471E4B08689842E3
:101750000BD21D4B0868C01A1423B0FBF3F08000B5
:10176000086419480838C8630AE0164B0868C01AAC
:101770001423B0FBF3F08000086412480838C863F3
:10178000022081F821000868026843F6F070824365
:10179000D1E901031843CB6818430B6918434B691F
:1017A00018438B691843CB691843024308680260E9
:1017B00000208863012081F82100002081F82000AA
:1017C00000BFC1E708040240080002402DE9F041D3
:1017D00004460D4616461F464FF0000800BF94F819
:1017E0002000012802D10220BDE8F081012084F808
:1017F000200000BF94F8210001282CD1022084F899
:1018000021000020A0632068006820F0010021680A
:1018100008603B46324629462046FFF713FBE06A44
:1018200030B12068006840F00E00216808600BE0CD
:101830002068006820F004002168086020680068C3
:1018400040F00A00216808602068006840F001004C
:101850002168086006E000BF002084F8200000BF77
:101860004FF002084046BFE72DE9F04102460B4623
:1018700000208BE00127874007EA030100297DD083
:10188000464F4FEA900C57F82C4087074FEA177CD9
:101890000F2707FA0CF73C40414FBA4201D100270D
:1018A00019E0404FBA4201D1012714E03E4FBA423D
:1018B00001D102270FE03D4FBA4201D103270AE0D0
:1018C0003B4FBA4201D1042705E03A4FBA4201D159
:1018D000052700E006274FEA807C4FEA1C7C07FAC8
:1018E0000CF7A74230D187074FEA177C0F2707FA7A
:1018F0000CF42A4F4FEA900C57F82C70A743DFF8EE
:101900009CC04FEA90084CF828702B4F3F688F43DB
:10191000DFF8A4C0CCF800700CF104073F688F43D7
:101920000CF1040CCCF800700CF104073F688F43F5
:101930000CF1040CCCF800700CF104073F688F43E5
:101940000CF1040CCCF80070FF2901D8174600E018
:10195000171D3D46FF2901D8870002E0A0F10807C6
:10196000BF003E462F684FF00F0C0CFA06FC27EA2A
:101970000C074FF0040C0CFA06FC00E005E047EA07
:101980000C072F60D7688F43D760401C23FA00F7FD
:10199000002F7FF46FAFBDE8F08100000800014028
:1019A00000080140000C01400010014000140140FB
:1019B00000180140001C01400004014070B50546BC
:1019C000284605F0D5FB044604EB4400094901EB29
:1019D0008000406858B104EB44020B4603EB8202DE
:1019E000906804EB440203EB82025168884700BF11
:1019F00070BD00002C00002010B5044604480068AB
:101A0000204020B1024804602046FFF7D7FF10BDF8
:101A1000140401402DE9F847024600239C467BE16F
:101A20004FF0010808FA03F4D1F8008008EA040036
:101A3000A0427DD1DFF8F4A2D1F80480A8EB0A0916
:101A4000D0453AD014DCB8F1030F50D009DCB8F11E
:101A5000000F31D0B8F1010F1CD0B8F1020F49D1FD
:101A600020E0B8F1110F18D0B8F1120F42D11EE0EA
:101A7000B9F5881F25D006DCB9F5803F20D0B9F52F
:101A8000801F37D11AE0B9F5001F18D0B9F5041F2F
:101A900030D117E0D1F80CC02DE0D1F80C8008F15E
:101AA000040C28E0D1F80C8008F1080C23E0D1F8F0
:101AB0000C8008F10C0C1EE000BF00BF00BF00BF8F
:101AC00000BF00BFD1F80880B8F1000F02D14FF07D
:101AD000040C0BE0D1F80880B8F1010F03D14FF0EE
:101AE000080C146102E04FF0080C546103E04FF061
:101AF000000C00E000BF00BFFF2801D8904601E0C5
:101B000002F104084646FF2802D84FEA830803E0A2
:101B1000A3F108084FEA88084746D6F800804FF03E
:101B20000F0909FA07F928EA09080CFA07F900E091
:101B30007AE048EA0908C6F80080D1F8048008F085
:101B40008058B8F1805F6FD100BFDFF8E481D8F82A
:101B5000188048F00108DFF8D891C9F81880C84605
:101B6000D8F8188008F00108CDF8008000BF00BF49
:101B70004FEAB9384FEA930958F829504FEA837869
:101B80004FEA18794FF00F0808FA09F825EA080516
:101B9000DFF8A081424502D14FF0000824E0DFF8D1
:101BA0009881424502D14FF001081DE0DFF88C8199
:101BB000424502D14FF0020816E0DFF88481424529
:101BC00002D14FF003080FE0DFF87881424502D1DF
:101BD0004FF0040808E0DFF87081424502D14FF071
:101BE000050801E04FF006084FEA83794FEA1979BA
:101BF00008FA09F848EA0505DFF850814FEA930929
:101C000048F82950D1F8048008F48038B8F5803FAE
:101C10000BD1DFF83C81D8F8008048EA0008DFF8F3
:101C20003091C9F800800AE075E0DFF82481D8F827
:101C3000008028EA0008DFF81891C9F80080D1F880
:101C4000048008F40038B8F5003F0ED1DFF80081B9
:101C500008F10408D8F8008048EA0008DFF8F0909E
:101C600009F10409C9F800800DE0DFF8E48008F10B
:101C70000408D8F8008028EA0008DFF8D49009F1B9
:101C80000409C9F80080D1F8048008F48018B8F578
:101C9000801F0ED1DFF8B88008F10808D8F800805E
:101CA00048EA0008DFF8A89009F10809C9F800809F
:101CB0000DE0DFF89C8008F10808D8F8008028EAD9
:101CC0000008DFF88C9009F10809C9F80080D1F804
:101CD000048008F40018B8F5001F0ED1DFF87080FA
:101CE00008F10C08D8F8008048EA0008DFF8609096
:101CF00009F10C09C9F800800DE0DFF8548008F103
:101D00000C08D8F8008028EA0008DFF8449009F1B0
:101D10000C09C9F800805B1CD1F8008028FA03F890
:101D2000B8F1000F7FF47CAEBDE8F8870000111019
:101D30000010024000080140000C0140001001406A
:101D40000014014000180140001C0140080001403F
:101D500000040140024693680B400BB1012000E0F3
:101D6000002070470AB1016101E00B040361704774
:101D700010B50DF0B1FF4FF47A714843B0FBF1F0AC
:101D800010BD000003480068034909780844014970
:101D900008607047AC040020B404002010B5084867
:101DA000006840F0100006490860032000F0A8F821
:101DB000002000F007F800F009F8002010BD000036
:101DC00000200240014600207047000008B500BF17
:101DD0001148806940F001000F4988610846806918
:101DE00000F00100009000BF00BF00BF0846C069BE
:101DF00040F08050C8610846C06900F080500090F3
:101E000000BF00BF00BF0549486820F0E06040F017
:101E10000070486000BF08BD001002400000014093
:101E200010B501460846002817DB00F01F03012209
:101E30009A400B4B440943F8242000BF00BF00BF69
:101E4000BFF34F8F00BF00BF00BF00BF00BF00BF88
:101E5000BFF36F8F00BF00BF00BF00BF10BD000009
:101E600080E100E001460846002809DB00F01F037E
:101E700001229A4043099B0003F1E023C3F80021AB
:101E800000BF70472DE9F05F80460D4616460027DB
:101E900004F08AF9074639462A46334601F007001E
:101EA000C0F1070ABAF1040F02D94FF0040A01E0A9
:101EB000C0F1070AD14600F1040ABAF1070F02D2B5
:101EC0004FF0000A01E0A0F1030AD4464FF0010AE6
:101ED0000AFA09FAAAF1010A0AEA020A0AFA0CFA4B
:101EE0004FF0010B0BFA0CFBABF1010B0BEA030BF0
:101EF0004AEA0B042146404604F05EF9BDE8F09F33
:101F000000BF00F00702064B19684FF6FF031940A7
:101F1000044B0B4343EA0221014B196000BF704799
:101F20000CED00E00000FA052DE9F04385B006460F
:101F300042A30FCB01AC0FC444A0006800904FF047
:101F40000008002500270024A146042E36D004DC1A
:101F5000012E3BD0022E6BD15FE0082E32D0102E26
:101F600066D13B484468006800F0807000B301A867
:101F7000C4F38341475C04F4803070B13448406856
:101F8000C0F340401DF8008004F4803040B1314877
:101F9000B0FBF8F000FB07F502E02F4807FB00F567
:101FA0002B48406800F48000B0F5800F01D1A946AD
:101FB00003E068000321B0FBF1F93AE000F0D2F948
:101FC000814636E000F0CEF9814632E02048046ACE
:101FD00004F44070B0F5807F05D104F0020010B128
:101FE0004FF4004918E004F44070B0F5007F07D1C9
:101FF0001748406A00F0020010B149F640490BE072
:1020000004F44070B0F5407F06D11148006800F438
:10201000003008B14FF224490BE000F093F90C496D
:102020004968C1F38131491C4900B0FBF1F900E076
:1020300000BF00BF484605B0BDE8F08302030405B9
:10204000060708090A0B0C0D0E0F10100102000004
:102050000010024000127A0000093D00F8B5044665
:1020600000260025207800F0010000286BD0002712
:102070004348C06900F0805070B900BF4048C06953
:1020800040F080503E49C8610846C06900F0805069
:10209000009000BF00BF01273A48006800F480703C
:1020A000B0B93848006840F4807036490860FFF7DE
:1020B0005FFE064606E0FFF75BFE801B642801D941
:1020C0000320F8BD2F48006800F480700028F2D08B
:1020D0002B48006A00F440752DB3A08800F44070CE
:1020E000A84220D02648006A20F4407501202649E5
:1020F0000860002008602248056205F0010090B1E8
:10210000FFF736FE064608E0FFF732FE801B41F27D
:102110008831884201D90320D3E71948006A00F0CA
:1021200002000028F0D01648006A20F44070616870
:10213000084313490862012F04D10846C06920F002
:102140008050C86100BF207800F00200022807D14B
:102150000B48406820F44040A168084308494860A3
:10216000207800F01000102807D10548406820F4BE
:10217000800061690843024948600020A1E700002F
:1021800000100240007000404004424270B5044616
:102190000D460CB9012070BD5A48006800F00700D8
:1021A000A8420ED25748006820F00700284355493E
:1021B00008600846006800F00700A84201D001202E
:1021C000E9E7207800F0020002281DD1207800F015
:1021D0000400042805D14C48406840F4E0604A49B6
:1021E0004860207800F00800082805D1464840687B
:1021F00040F46050444948604348406820F0F00093
:10220000A168084340494860207800F0010078B395
:102210006068012806D13C48006800F4003090B99D
:102220000120B8E76068022806D13748006800F04E
:10223000007040B90120AEE73348006800F00200AA
:1022400008B90120A7E73048406820F00300616822
:1022500008432D494860FFF78BFD064609E0FFF76C
:1022600087FD801B41F28831884202D9032092E722
:1022700007E02548406800F00C006168B0EB810F72
:10228000EDD12048006800F00700A8420ED91D4893
:10229000006820F0070028431A49086008460068D3
:1022A00000F00700A84201D0012074E7207800F078
:1022B0000400042807D11448406820F4E060E16875
:1022C000084311494860207800F00800082808D128
:1022D0000D48406820F46050216940EAC1000A4975
:1022E000486000F03FF808494968C1F30311074A04
:1022F000515CC8400649086006480068FFF762FD67
:10230000002048E70020024000100240B4440108C9
:10231000A8040020B00400200148006870470000B5
:10232000A804002000B5FFF7F7FF04494968C1F38E
:102330000221034A515CC84000BD00000010024069
:10234000C444010800B5FFF7E7FF04494968C1F339
:10235000C221034A515CC84000BD00000010024089
:10236000C4440108F0B585B00FF26C0C9CE8E01095
:1023700001A8A0E8E0101CA52D680095002100220E
:10238000002300240020194D696801F00C05F5B107
:10239000042D02D0082D19D101E0154819E001AD36
:1023A000C1F38346AC5D01F4803555B10F4D6D68C6
:1023B000C5F340451DF805200D4D6543B5FBF2F30F
:1023C00002E00C4D04FB05F3184602E000BF08488C
:1023D00000BF00BF05B0F0BD0203040506070809F1
:1023E0000A0B0C0D0E0F101001020000001002402D
:1023F00000127A0000093D00F8B504460CB901202E
:10240000F8BD207800F00100002878D0F848406836
:1024100000F00C0004280CD0F548406800F00C00D7
:10242000082811D1F248406800F48030B0F5803FB0
:102430000AD1EF48006800F4003000285FD06068DF
:1024400000285CD10120DBE700BF6068B0F5803F69
:1024500006D1E748006840F48030E549086028E08C
:10246000606858B9E248006820F48030E0490860AC
:102470000846006820F4802008601AE06068B0F523
:10248000A02F0BD1DA48006840F48020D8490860BA
:102490000846006840F4803008600AE0D4480068CC
:1024A00020F48030D24908600846006820F480207B
:1024B000086000BF606888B1FFF75AFC054606E077
:1024C000FFF756FC401B642801D9032098E7C84851
:1024D000006800F400300028F2D010E0FFF748FC5C
:1024E000054606E0FFF744FC401B642801D90320A1
:1024F00086E7BF48006800F400300028F2D1207859
:1025000000F00200022857D1B948406800F00C00E2
:1025100050B1B748406800F00C00082818D1B44802
:10252000406800F4803098B9B148006800F00200BB
:1025300020B12069012801D0012061E7AC48006882
:1025400020F0F800616940EAC100A949086033E061
:102550002069E8B10120A7490860FFF709FC05469A
:1025600006E0FFF705FC401B022801D9032047E7DE
:102570009F48006800F002000028F2D09C480068E4
:1025800020F0F800616940EAC1009949086013E051
:10259000002098490860FFF7EBFB054606E0FFF7CF
:1025A000E7FB401B022801D9032029E79048006877
:1025B00000F002000028F2D1207800F0080008287E
:1025C0002DD1A069B8B101208B490860FFF7D0FB7D
:1025D000054606E0FFF7CCFB401B022801D903208B
:1025E0000EE78348406A00F002000028F2D0012084
:1025F00001F024F813E000207F490860FFF7B8FBE2
:10260000054606E0FFF7B4FB401B022801D9032072
:10261000F6E67748406A00F002000028F2D1207800
:1026200000F00400042873D100277148C06900F04D
:10263000805070B900BF6E48C06940F080506C494E
:10264000C8610846C06900F08050009000BF00BF1C
:1026500001276A48006800F48070B0B967480068D4
:1026600040F4807065490860FFF782FB054606E08C
:10267000FFF77EFB401B642801D90320C0E65F48BA
:10268000006800F480700028F2D000BFE0680128E4
:1026900006D15748006A40F001005549086227E01A
:1026A000E06858B95248006A20F0010050490862B9
:1026B0000846006A20F00400086219E0E068052876
:1026C0000BD14B48006A40F00400494908620846B3
:1026D000006A40F0010008620AE04548006A20F004
:1026E0000100434908620846006A20F004000862BD
:1026F00000BFE068A0B1FFF73BFB054609E0FFF72C
:1027000037FB401B41F28831884202D9032077E62B
:1027100022E03748006A00F002000028EFD012E003
:10272000FFF726FB054608E0FFF722FB401B41F2BE
:102730008831884201D9032062E62D48006A00F002
:1027400002000028F0D1012F05D12948C06920F0EE
:1027500080502749C86100BFE069C8B32448406879
:1027600000F00C00082860D0E069022848D1002061
:1027700020490866FFF7FCFA054606E0FFF7F8FA7D
:10278000401B022801D903203AE61948006800F0EE
:1027900000700028F2D1206AB0F5803F07D11448BC
:1027A000406820F40030A168084311494860D4E92A
:1027B000080108430E49496821F4741108430C4983
:1027C000486001200B490866FFF7D2FA054607E08A
:1027D0003DE0FFF7CDFA401B022801D903200FE6A8
:1027E0000348006800F000700028F2D02FE00000DD
:1027F000001002400000424280044242007000404B
:10280000002014490866FFF7B3FA054606E0FFF713
:10281000AFFA401B022801D90320F1E50E480068F9
:1028200000F000700028F2D111E0E069012800D129
:10283000E6E50948466806F48031206A814204D101
:1028400006F47011606A814201D00120D8E50020B1
:10285000D6E500000000424200100240042808D1E2
:102860004FF0E021096941F004014FF0E0221161CD
:1028700007E04FF0E021096921F004014FF0E02268
:102880001161704770B504462546681EB0F1807F1F
:1028900001D301200FE0681E4FF0E02148610F21B5
:1028A0004FF0FF3003F088FC00204FF0E0218861FA
:1028B00007200861002070BD10B5024600BF92F8E5
:1028C0003C00012801D1022010BD012082F83C000B
:1028D00000BF022082F83D001068436810688468D9
:1028E00023F070030868034324F08004486804431D
:1028F0001068436010688460012082F83D0000BFCA
:10290000002082F83C0000BF00BFDDE710B50446A0
:102910000CB9012010BD94F83D0028B9002084F8BE
:102920003C00204600F00CF8022084F83D00211DF8
:10293000206800F075FF012084F83D000020E9E7E1
:1029400010B586B0044600200290039004900590D4
:102950002068B0F1804F45D100BF6A48C06940F09F
:1029600001006849C8610846C06900F00100019093
:1029700000BF00BF00BF0846806940F004008861C6
:102980000846806900F00400019000BF00BF00BF4E
:102990000846806940F0080088610846806900F0B8
:1029A0000800019000BF00BF4FF4004002900020DB
:1029B0000390049002A95448FFF72CF808200290D5
:1029C00000200390049002A95048FFF723F800BFAD
:1029D0004F49486820F4407040F0E06040F4807057
:1029E00048608CE04B492068884224D100BF4548AC
:1029F000C06940F002004349C8610846C06900F060
:102A00000200019000BF00BF00BF0846806940F08F
:102A1000040088610846806900F00400019000BF4E
:102A200000BFC020029000200390049002A9364805
:102A3000FEF7F0FF63E038492068884224D100BFE8
:102A40003048C06940F004002E49C8610846C0699A
:102A500000F00400019000BF00BF00BF084680697D
:102A600040F0080088610846806900F00800019085
:102A700000BF00BFC020029000200390049002A974
:102A80002248FEF7C7FF3AE024492068884224D153
:102A900000BF1C48C06940F008001A49C8610846D8
:102AA000C06900F00800019000BF00BF00BF0846E9
:102AB000806940F0040088610846806900F00400E5
:102AC000019000BF00BF03200290002003900490FB
:102AD00002A90D48FEF79EFF11E0114920688842C7
:102AE0000DD100BF0748806940F400500549886156
:102AF0000846806900F40050019000BF00BF06B096
:102B000010BD00000010024000080140000C014010
:102B1000000001400004004000080040000C00409C
:102B2000003401402DE9F04104460D4600BF94F801
:102B30003C00012802D10220BDE8F081012084F888
:102B40003C0000BF022084F83D002068866826F023
:102B5000770626F47F46206886602868502833D0A0
:102B60000CDC202850D004DC00284BD0102851D198
:102B700049E0302849D040284CD139E060282DD098
:102B8000702807D0B0F5805F03D0B0F5005F41D169
:102B90000DE040E0D5E902136A68206800F09FFE6E
:102BA0002068866846F077062068866033E0D5E9BD
:102BB00002136A68206800F092FE2068806840F482
:102BC00080402168886026E0EA686968206800F033
:102BD00077FF5021206800F08DFE1CE0EA686968EC
:102BE000206800F080FF6021206800F083FE12E082
:102BF000EA686968206800F063FF4021206800F0FF
:102C000079FE08E000BF00BF00BF2968206800F01F
:102C100071FE00E000BF00BF012084F83D0000BF4E
:102C2000002084F83C0000BF00BF85E72DE9F0419B
:102C300004460D4614B90120BDE8F08194F83D002A
:102C400028B9002084F83C00204600F044F8022017
:102C500084F83D002068806844F2070188432168B9
:102C60008860211D206800F0DBFD2068D0F8088016
:102C7000206886692068076A286840EA080840F2E8
:102C800003308643A969A86840EA0120064340F65C
:102C90000C4086434FF2F0008643E969E86840EA59
:102CA0000120064328690001296A40EA01300643F1
:102CB00027F022076969686840EA01100743206825
:102CC000C0F808802068866120680762012084F8C7
:102CD0003D000020B0E7704730B504460D4615B101
:102CE000042D0CD105E001220021206800F0E6FD52
:102CF00010E001220421206800F0E0FD0AE001223A
:102D00000021206800F0DAFD01220421206800F093
:102D1000D5FD00BF00BF2068006840F001002168B9
:102D20000860002030BD30B504460D4615B1042DB5
:102D300018D10BE001220021206800F0BFFD2068BF
:102D4000C06840F002002168C86022E0012204212E
:102D5000206800F0B3FD2068C06840F004002168DE
:102D6000C86016E001220021206800F0A7FD0122C2
:102D70000421206800F0A2FD2068C06840F0020035
:102D80002168C8602068C06840F004002168C860FD
:102D900000BF00BF2068006840F0010021680860A3
:102DA000002030BD30B504460D4615B1042D0CD1C0
:102DB00005E000221146206800F080FD10E00022AE
:102DC0000421206800F07AFD0AE000221146206804
:102DD00000F074FD00220421206800F06FFD00BFA8
:102DE00000BF00BF2068006A41F21111084050B9CD
:102DF0002068006A8910084028B92068006820F01F
:102E000001002168086000BF002030BD30B50446D5
:102E10000D465DB900221146206800F04FFD206884
:102E2000C06820F002002168C86023E0042D0BD1A7
:102E300000220421206800F041FD2068C06820F0D5
:102E400004002168C86015E000221146206800F0E7
:102E500035FD00220421206800F030FD2068C068A4
:102E600020F002002168C8602068C06820F00400DB
:102E70002168C86000BF2068006A41F21111084053
:102E800050B92068006A8910084028B92068006895
:102E900020F001002168086000BF012084F83D0097
:102EA000002030BD024600BF92F83C00012801D14D
:102EB00002207047012082F83C0000BF022082F807
:102EC0003D0010684161012082F83D0000BF0020F4
:102ED00082F83C0000BF00BFEBE7000010B586B0F1
:102EE0000446002002900390049005900E4920684B
:102EF000884217D100BF0D48806940F010000B498F
:102F000088610846806900F01000019000BF00BF92
:102F10004FF47070029002200390059002A90448BB
:102F2000FEF778FD06B010BD0034014000100240ED
:102F30000010014070B504460D46164600BF94F8D7
:102F40003C00012801D1022070BD012084F83C0022
:102F500000BF022084F83D0036B1042E1BD0082E9D
:102F600031D00C2E5ED145E02946206800F0CCFC23
:102F70002068806940F008002168886120688069C5
:102F800020F004002168886120688069296908436D
:102F90002168886147E02946206800F0EDFC206840
:102FA000806940F40060216888612068806920F4AD
:102FB00080602168886120688069296940EA012071
:102FC000216888612FE02946206800F013FD206801
:102FD000C06940F008002168C8612068C06920F01D
:102FE00004002168C8612068C06929690843216814
:102FF000C86118E02946206800F038FD2068C069E3
:1030000040F400602168C8612068C06920F48060D5
:103010002168C8612068C069296940EA01202168E7
:10302000C86100E000BF00BF012084F83D0000BF80
:10303000002084F83C0000BF00BF85E710B50446BF
:103040000CB9012010BD94F83D0028B9002084F887
:103050003C00204600F012F8022084F83D00211DBB
:10306000206800F0DDFB012084F83D002068406C02
:1030700040F40040216848640020E3E77047000006
:1030800070B504460E4601223146206800F016FC59
:103090000F492068884203D00E492068884201D138
:1030A000012000E0002028B12068406C40F400407E
:1030B000216848642068806800F00705062D05D067
:1030C0002068006840F0010021680860002070BDA1
:1030D000002C01400034014030B504460D4600226A
:1030E0002946206800F0EAFB1B492068884203D08B
:1030F0001A492068884201D1012000E0002090B1E7
:1031000000BF2068006A41F21111084050B92068E0
:10311000006A8910084028B92068406C20F40040FB
:103120002168486400BF00BF2068006A41F21111A5
:10313000084050B92068006A8910084028B9206802
:10314000006820F001002168086000BF012084F8B9
:103150003D00002030BD0000002C01400034014043
:1031600070B504462CB94FF45372034903A008F01C
:10317000D5FC254670BD0000C93C01086875617228
:103180007420213D204E554C4C0000002DE9F047A5
:103190000446206805682068C668206847694FF0C3
:1031A0000008C14605F00F08B8F1000F0AD105F07C
:1031B000200038B106F0200020B1204600F04FFD7D
:1031C000BDE8F087B8F1000F6DD007F0010018B925
:1031D00006F49070002866D005F0010030B106F4C6
:1031E000807018B1E06B40F00100E06305F004006E
:1031F00030B107F0010018B1E06B40F00200E0636D
:1032000005F0020030B107F0010018B1E06B40F0AA
:103210000400E06305F0080030B107F0010018B1C8
:10322000E06B40F00800E063E06B68B305F020005D
:1032300028B106F0200010B1204600F010FD2068F3
:103240004069C0F38019E06B00F0080010B9B9F1D3
:10325000000F22D0204600F0D8FC2068406900F022
:103260004000B0B12068406920F04000216848610A
:10327000606B50B11748616B4863606BFEF746F9AD
:1032800010B1606B416B88470CE02046FFF768FF88
:1032900008E02046FFF764FF04E02046FFF760FFE8
:1032A0000020E0638CE705F0800030B106F080007C
:1032B00018B1204600F0F6FD82E705F0400030B17D
:1032C00006F0400018B1204600F0AFFC78E700BFE0
:1032D00076E700000F3B000810B504460CB901204A
:1032E00010BDA06900B100E000BF94F8390028B912
:1032F000002084F83800204600F028F8242084F8C4
:1033000039002068C06820F400502168C860204659
:1033100000F0F8FC2068006920F490402168086102
:103320002068406920F02A00216848612068C06850
:1033300040F400502168C8600020E063202084F839
:10334000390084F83A000020CAE7000010B586B0C2
:1033500004460020029003900490059033492068B1
:1033600088422FD100BF3248806940F48040304904
:1033700088610846806900F48040019000BF00BF6A
:1033800000BF0846806940F00400886108468069F3
:1033900000F00400019000BF00BF48150290022019
:1033A00003900320059002A92248FEF733FB4FF457
:1033B0008060029000200390049002A91D48FEF74F
:1033C00029FB31E01C49206888422DD100BF1848F4
:1033D000C06940F400301649C8610846C06900F46D
:1033E0000030019000BF00BF00BF0846806940F078
:1033F000040088610846806900F00400019000BF65
:1034000000BF04200290022003900320059002A92F
:103410000848FEF7FFFA082002900020039004906D
:1034200002A90448FEF7F6FA06B010BD00380140C4
:1034300000100240000801400044004077B581B010
:103440000446154694F83A00202850D1029800B15D
:1034500015B9012004B070BD00BF94F838000128F0
:1034600001D10220F6E7012084F8380000BF02985D
:10347000A062A5850020E063222084F83A001D4860
:10348000616B88621C48616BC8621C48616B086391
:103490000020616B486302AE32682368191D2B4619
:1034A000606BFEF793F900BF002000902068006871
:1034B000009020684068009000BF00BF00BF00205F
:1034C00084F8380000BF2068C06840F4807021682C
:1034D000C8602068406940F00100216848612068A8
:1034E000406940F04000216848610020B2E70220B6
:1034F000B0E70000733B0008B93B0008233B00081D
:1035000070B504462CB94FF45772054905A008F070
:1035100005FB254605F1D40003F0D6FE70BD000082
:10352000E03C0108687561727420213D204E554CC5
:103530004C00000070B504462CB940F26B320549CE
:1035400005A008F0EBFA254605F1D40003F0BCFE17
:1035500070BD0000F83C0108687561727420213D5F
:10356000204E554C4C000000F7B50446154694F823
:10357000390020283DD1019800B10DB90120FEBDD0
:1035800000BF94F83800012801D10220F7E701209C
:1035900084F8380000BF01982062A584E5840020EB
:1035A000E063212084F839001348216B88621348B6
:1035B000216BC8621248216B08630020216B4863AD
:1035C00001AE23681A1D31682B46206BFEF7FEF80A
:1035D0006FF040002168086000BF002084F83800C8
:1035E00000BF2068406940F08000216848610020E9
:1035F000C5E70220C3E70000C73B0008FD3B000809
:10360000233B000870B504462CB940F272320549DC
:1036100005A008F083FA2546042105F1D40009F03D
:1036200059FD70BD143D0108687561727420213D1B
:10363000204E554C4C0000007047000008B508496A
:103640000968C9084FF47A72B1FBF2F14143009165
:1036500000BF00BF00994A1E00920029F9D108BDA1
:10366000A804002070B504460121A2682068904794
:10367000206900B917E00CF02FFB05460DE00CF0B7
:103680002BFB401BE169884202D96FF0010070BD3D
:10369000E169491C48080BF0A9FF216920688847A7
:1036A0000028ECD000BF204604F00EFE0020EEE71C
:1036B00010B50AF001F8FEF765FB0CF013FB0AF0F9
:1036C00025F810BD00B595B028210BA8FDF76DF8C1
:1036D000142106A8FDF769F818216846FDF765F87A
:1036E0000D200B904FF480300C9000200D900120A5
:1036F0000F9002201290C10313914FF4E011149126
:103700000BA8FEF779FE18B1212113A000F016FCDA
:103710000F20069002200790002008904FF4806050
:10372000099000200A90022106A8FEF72FFD18B18B
:103730002E2109A000F002FC032000904FF400406D
:1037400002906846FEF78AFC18B1352102A000F00D
:10375000F5FB15B000BD0000626F6172645C626FC2
:103760006172642E630000001148006840F001009F
:103770000F490860084640680E4908400C494860F7
:10378000084600680C490840094908600846006876
:1037900020F4802008600846406820F4FE0048605D
:1037A0004FF41F008860C803044908607047000098
:1037B000001002400000FFF8FFFFF6FE08ED00E0F9
:1037C00010B509F079FF034808F011F809F09EFFE1
:1037D00010BD0000D801002010B509F06DFF0348AE
:1037E00008F005F809F092FF10BD00006C020020FF
:1037F00010B509F061FF034807F0F9FF09F086FFF3
:1038000010BD00000003002010B509F055FF03486B
:1038100007F0EDFF09F07AFF10BD000094030020CF
:1038200010B50268204B98420ED0204B98420BD026
:10383000B0F1804F08D01E4B984205D01D4B9842E6
:1038400002D01D4B984203D122F070024B681A43FC
:10385000154B98420ED0154B98420BD0B0F1804FCB
:1038600008D0134B984205D0124B984202D0124B0D
:10387000984203D122F44072CB681A4322F08003AD
:103880004C6943EA040202608B68C3620B6883627E
:10389000054B984202D0054B984201D10B69036356
:1038A0000123436110BD0000002C014000340140A1
:1038B0000004004000080040000C004030B501F05A
:1038C0001F05012404FA05F3046A9C430462046A98
:1038D00001F01F0502FA05F52C43046230BD30B536
:1038E0000C46816821F47F4142EA032525432943A0
:1038F000816030BD0A46816821F0700142F0070303
:10390000194381607047000030B5056A25F0010554
:103910000562026A4368846924F0700424F0030499
:103920000D682C4322F002028D682A43104DA842F4
:1039300000D103E00F4DA84206D100BF22F00802DB
:10394000CD682A4322F00402094DA84202D0094D55
:10395000A84207D123F4807323F400734D692B43ED
:103960008D692B43436084614D684563026230BDBD
:10397000002C01400034014030B5056A25F01005E7
:103980000562026A4368846924F4E04424F44074C4
:103990000D6844EA052422F020028D6842EA0512EF
:1039A000124DA84200D103E0114DA84207D100BF3B
:1039B00022F08002CD6842EA051222F040020B4D4F
:1039C000A84202D00A4DA84209D123F4806323F40F
:1039D00000634D6943EA85038D6943EA85034360CB
:1039E00084614D688563026230BD0000002C014097
:1039F0000034014030B5056A25F480750562026A1D
:103A00004368C46924F0700424F003040D682C4357
:103A100022F400728D6842EA0522124DA84200D1BC
:103A200003E0114DA84207D100BF22F40062CD6827
:103A300042EA052222F480620A4DA84202D00A4DD1
:103A4000A84209D123F4805323F400534D6943EA7B
:103A500005138D6943EA05134360C4614D68C5636E
:103A6000026230BD002C01400034014030B5056ACF
:103A700025F480550562036A4468C26922F4E04275
:103A800022F440720D6842EA052223F400538D6847
:103A900043EA0533084DA84202D0084DA84204D19C
:103AA00024F480444D6944EA85144460C2614D6841
:103AB0000564036230BD0000002C01400034014069
:103AC00030B50B461446026A056A25F00105056209
:103AD000816921F0F00141EA041122F00A021A433F
:103AE0008161026230BD30B50B461446056A25F08F
:103AF000100505628169026A21F4704141EA0431CE
:103B000022F0A00242EA03128161026230BD70B568
:103B100005466C6A0020E085E0842046FFF720FB24
:103B200070BD70B506460025746A20684069C0F310
:103B3000C01594F83900212805D125B10020E08472
:103B4000204600F082F820684069C0F3801594F8A0
:103B50003A00222805D125B10020E085204600F05A
:103B600054F8E06B40F01000E0632046FFF7F8FAED
:103B700070BD70B505466C6A2868006800F02000CA
:103B8000B0B90020E0852068C06820F4807021680A
:103B9000C8602068406920F0010021684861206801
:103BA000406920F0400021684861202084F83A00F4
:103BB0002046FFF7A5FC70BD70B50446656A28462F
:103BC000FFF7B8FC70BD70B505466C6A28680068E0
:103BD00000F0200070B90020E0842068406920F0E7
:103BE0008000216848612068C06840F0400021687A
:103BF000C86002E02046FFF705FD70BD70B50446C1
:103C0000656A2846FFF718FD70BD0168C96821F490
:103C100090710268D1600168496921F00101026870
:103C20005161202180F83A10704710B50446206891
:103C3000C06820F040002168C860202084F8390066
:103C40002046FFF7DFFC002010BD0168C96821F0A5
:103C5000C0010268D160202180F83910704770B52A
:103C6000044694F83A0022284AD1A068B0F5805F53
:103C700013D1A56A206940B920684068C0F30800E4
:103C80002880A06A801CA06219E020684068C0B249
:103C90002880A06A401CA06211E0206938B9206821
:103CA0004068C1B2A26A501CA062117007E020688F
:103CB000406800F07F01A26A501CA0621170E08D84
:103CC000401E80B2E085C8B92068C06820F020009E
:103CD0002168C8602068C06820F480702168C860CE
:103CE0002068406920F0010021684861202084F8A4
:103CF0003A002046FFF704FC002070BD0020FCE7DE
:103D00000220FAE770B504462168096921F44051A0
:103D1000E2681143226811612269A1681143626956
:103D200041EA02052168C96841F20C6291432943C6
:103D30002268D1602168496921F44071A269114368
:103D400022685161564A2168914254D1FEF7FAFA2D
:103D500000EBC00101EB001162689200B1FBF2F1CF
:103D600000EBC00202EB001263689B00B2FBF3F2AF
:103D70006423B2FBF3F202EBC20303EB0212A1EBEA
:103D80008201322202EB01116422B1FBF2F101F057
:103D9000F00100EBC00202EB001263689B00B2FB73
:103DA000F3F26423B2FBF3F201EB021200EBC00169
:103DB00001EB001163689B00B1FBF3F100EBC00362
:103DC00003EB00136668B600B3FBF6F36426B3FB9F
:103DD000F6F303EBC30606EB0313A1EB83013223D7
:103DE00003EB01116423B1FBF3F101F00F01114466
:103DF0002268916053E0FEF795FA00EBC00101EBF9
:103E0000001162689200B1FBF2F100EBC00202EB1C
:103E1000001263689B00B2FBF3F26423B2FBF3F27F
:103E200002EBC20303EB0212A1EB8201322202EB8E
:103E300001116422B1FBF2F101F0F00100EBC002CC
:103E400002EB001263689B00B2FBF3F26423B2FB47
:103E5000F3F201EB021200EBC00101EB0011636809
:103E60009B00B1FBF3F100EBC00303EB00136668AA
:103E7000B600B3FBF6F36426B3FBF6F303EBC3061D
:103E800006EB0313A1EB8301322303EB011164233F
:103E9000B1FBF3F101F00F0111442268916070BD94
:103EA00000380140014691F8390021282CD188685A
:103EB000B0F5805F0FD10A6A1088C0F308000B6864
:103EC0005860086918B9086A801C086209E0086A25
:103ED000401C086205E00B6A581C086218780B68E1
:103EE0005860C88C401E80B2C88458B90868C06841
:103EF00020F080000B68D8600868C06840F040007F
:103F00000B68D860002070470220FCE710B509F06C
:103F1000D3FB03480DF08AFC09F0F8FB10BD00004C
:103F2000E40E002010B509F0C7FB03480DF07EFC3D
:103F300009F0ECFB10BD00000C10002000BFFEE7F4
:103F400030B503461C788C545D78541C0D559D7813
:103F5000941C0D55DD78D41C0D5530BD2DE9F04174
:103F600005460C46052D7DD2DFE805F003040E3D25
:103F7000A100C5E064A009F02FFC6DA009F02CFCA5
:103F800074A009F029FCBBE079A06168FCF760FC33
:103F900000280ED178A009F01FFC7FA009F01CFCBE
:103FA00083A009F019FC87A009F016FC8DA009F088
:103FB00013FC91A06168FCF74BFC40B98FA009F09D
:103FC0000BFC96A009F008FC9CA009F005FCA3A03E
:103FD0006168FCF73DFC28B9A2A009F0FDFBADA08B
:103FE00009F0FAFB8CE062A06168FCF731FC002864
:103FF00053D1AFA0A168FCF72BFC70B9AD48816824
:10400000ADA000F0E3F9AB48C168ADA000F0DEF967
:10401000A8480169ACA000F0D9F9ADA0A168FCF7EF
:1040200017FCC8B9AB4801F03FFD0646A14801F0B6
:104030003BFD074632463946A7A009F0CDFBB14803
:1040400001F032FD0646B04801F02EFD074632462B
:104050003946AEA009F0C0FBB6A0A168FCF7F8FB9A
:1040600078B900E048E09B48026892480168B2A035
:1040700009F0B2FBA3480268A3480168B9A009F09F
:10408000ABFBC2A0A168FCF7E3FBC1A0A168FCF7F1
:10409000DFFB10B90320BF49087070A06168FCF70E
:1040A000D7FB18B9A3A0A168FCF7D2FB28E052A067
:1040B0006168FCF7CDFB58B97DA0A168FCF7C8FB8F
:1040C000B3A0A168FCF7C4FBB3A0A168FCF7C0FBD8
:1040D00062A06168FCF7BCFB68B9B0A0A168FCF7FE
:1040E000B7FB40B9E068FCF7F4F906463146AC4846
:1040F00001F004F900BF03E0AAA009F06DFB00BFC6
:1041000000BFBDE8F0810000312E205B7265616464
:104110005D3A20526561642073797374656D207017
:104120006172616D65746572732E200D0A00000066
:10413000322E205B7365745D3A2053657420726F74
:10414000626F7420706172616D65746572732E2088
:104150000D0A0000332E205B6374726C5D3A2043BD
:1041600074726C20726F626F742E200D0A00000052
:1041700072656164000000005B2D705D2052656116
:10418000642070696420706172616D65746572731A
:104190002E200D0A000000005B2D655D2052656138
:1041A00064206F646F6D657465722E200D0A0000C7
:1041B0005B2D735D20526561642073706565642EAC
:1041C000200D0A005B2D625D2052656164206261F2
:1041D0007474657279206368617267652E200D0AB8
:1041E000000000005B2D695D205265616420696DEF
:1041F000752E200D0A000000736574005B2D705D44
:104200002053657420706964206B70207061726146
:104210006D65746572732E200D0A00005B2D695D5B
:104220002053657420706964206B6920706172612D
:104230006D65746572732E200D0A00005B2D645D40
:104240002053657420706964206B64207061726112
:104250006D65746572732E200D0A00006374726CB4
:10426000000000005B2D725D5B7370645D20557310
:1042700065642050494420636F6E74726F6C2072C5
:104280006F626F742072756E6E696E672E200D0AF4
:10429000000000005B2D735D204374726C20726F10
:1042A000626F742073746F702E200D0A000000007E
:1042B0002D700000C80500206B70203D200000001C
:1042C0006B69203D200000006B64203D2000000051
:1042D0002D65000024060020456E636F6465722022
:1042E0004C6566742046726F6E743A2025642C20EB
:1042F00052696768742046726F6E743A2025640DA7
:104300000A000000DC06002080060020456E636F76
:10431000646572204C65667420526561723A20258E
:10432000642C20526967687420526561723A2025B6
:10433000640D0A002D73000053706565643A204CCB
:104340006566742046726F6E743A2025642C205284
:10435000696768742046726F6E743A2025640D0A8E
:104360000000000053706565643A204C6566742057
:10437000526561723A2025642C2052696768742066
:10438000526561723A2025640D0A00002D6200001A
:104390002D690000A00700202D6400002D72000090
:1043A00038070020506172616D20697320746F6F4F
:1043B000206D616E7920706C6561736520656E7427
:1043C000657220616761696E210D0A002DE9F84F61
:1043D00081468A4650460EF09BFD074600220E4B52
:1043E0000EF086FA05460EF0EDF90446642194FBC2
:1043F000F1F10091201E01DB014600E04142642200
:1044000091FBF2F302FB131B5B46494603A0009AA3
:1044100009F0E2F9BDE8F88F0000594025733A2011
:1044200025642E25640A000070B504460D46024836
:104430000AF0B4FA002070BDA805002010B50446AB
:10444000014800F08BFF10BD38070020F0B58DB09B
:1044500005461E4801F028FB06461D4801F024FBD6
:10446000074633463A461BA168460AF005FF6946EF
:1044700028460DF099FC214801F016FB064620481D
:1044800001F012FB074633463A461EA168460AF081
:10449000F3FE694628460DF087FC244801F0DEF95A
:1044A000074623490EF00CFF06460EF08DFE04462B
:1044B0001E2C08DA22461FA168460AF0DDFE694676
:1044C00028460DF071FC0DB0F0BD00002406002060
:1044D000C8050020456E636F646572204C65667484
:1044E0002046726F6E743A2025642C2052696768EA
:1044F000742046726F6E743A20256400DC0600203A
:1045000080060020456E636F646572204C6566749A
:1045100020526561723A2025642C205269676874C4
:1045200020526561723A20256400000004080020D2
:104530000000C84254686520626174746572792015
:104540006973206C6F772C20706C656173652063D4
:10455000686172676520697420696E2074696D6591
:104560003A202564252E00002DE9F04104460D4631
:1045700017461E46204600F0C5FC04F13401281DF4
:1045800000F0E4FF204600F035FC04F1440105F1A1
:10459000140000F0DBFF204600F0FEFC04F15401A3
:1045A00005F1240000F0D2FF2946304601F048F919
:1045B000BDE8F08110B504460348D4E902326168D1
:1045C00000F0ACFE10BD00003807002010B5044616
:1045D000A0680EF09DFC084A03C2E0680EF098FC4B
:1045E000064A03C2206A0EF093FC054A03C20BF090
:1045F00073FB0449086010BD100000201800002063
:10460000080000202000002070B504460D4601215E
:10461000606800F08BF90221A06800F087F903219F
:10462000E06800F083F90421686800F07FF9052153
:10463000A86800F07BF90621E86800F077F9062009
:1046400000F004F9014809F0FBF870BD04120020E5
:104650000EB50024002500260027A0461EE03F4896
:1046600002683F4801683FA009F0B6F83B4842683D
:104670003B48416846A009F0AFF84F4802684F48F0
:1046800001684FA009F0A8F84B4842684B484168C0
:1046900055A009F0A1F8C8200AF0A8FF00BF5C48A7
:1046A00090F8F8040028DAD05AA009F095F854E000
:1046B0000BF012FB001B64280AD35D483E4B274ACF
:1046C0003E490090264800F01DFB0BF005FB044618
:1046D0000BF002FB57490968401AB0F5C87F01D3B7
:1046E00000F076FB0BF0F8FAC01BB0F57A7F0ED322
:1046F000514852494E4A304BCDE900210290174AA9
:104700002E49174800F0EEF80BF0E6FA07460BF0DA
:10471000E3FA801B322808D3494B3D4A49494A48AD
:10472000FFF722FF0BF0D8FA06460BF0D5FA401B34
:10473000B0F57A7F05D33648FFF788FE0BF0CCFA48
:1047400005460BF0C9FAA0EB0800322802D30BF0A3
:10475000C3FA80460A200AF049FFA9E72406002090
:10476000C805002053706565643A204C6566742066
:1047700046726F6E743A2025642C20526967687403
:104780002046726F6E743A2025642C2020000000B1
:104790006C6173743A204C6566742046726F6E7457
:1047A0003A2025642C2052696768742046726F6E27
:1047B000743A2025640D0A00DC06002080060020E3
:1047C00053706565643A204C656674205265617269
:1047D0003A2025642C205269676874205265617202
:1047E0003A2025642C2020006C6173743A204C65BB
:1047F000667420526561723A2025642C20526967E4
:10480000687420526561723A2025640D0A00000028
:1048100014080020526F732073657269616C2069FF
:104820007320636F6E6E65637421200D0A000000B3
:104830006007002020000020E80D00207C0D0020F3
:10484000FC0D0020480D0020A007002001460A2989
:1048500000DC09B9002070472420214A10700B2980
:104860003CD2DFE801F03B060B10151A1F24292F5C
:10487000350005201A4A50710620ECE70920184A35
:1048800050720A20E7E70D20154A50730E20E2E728
:104890001120134A50741220DDE71520104A50757C
:1048A0001620D8E719200E4A50761A20D3E71D208B
:1048B0000B4A50771E20CEE72120094A82F82100BA
:1048C0002220C8E72520064A82F825002620C2E7D4
:1048D0002920034A82F829002A20BCE70020BAE7F1
:1048E000041200202DE9F04786B005460E46174613
:1048F0009846DDE90F4ADDF83890D8F800003968AD
:10490000CDE900103368494603A82A6800F0C0FBCF
:10491000039860600498A0600598E06021465046C6
:1049200000F08EFF06B0BDE8F087000013B50C461E
:104930000A2C00DC04B91CBD0B2C43D2DFE804F0C8
:1049400042060C12181E242A30363C0001221F4950
:104950006846FFF7F5FA35E005221C496846FFF77F
:10496000EFFA2FE0092219496846FFF7E9FA29E032
:104970000D2216496846FFF7E3FA23E01122134996
:104980006846FFF7DDFA1DE0152210496846FFF77B
:10499000D7FA17E019220D496846FFF7D1FA11E05E
:1049A0001D220A496846FFF7CBFA0BE0212207498E
:1049B0006846FFF7C5FA05E0252204496846FFF777
:1049C000BFFA00BF00BF00BFB5E70000041200201F
:1049D00070B505460C4635B1012D05D0022D0DD020
:1049E000032D2DD123E02FE018A008F0F5FE20A024
:1049F00008F0F2FE2AA008F0EFFE25E037A061687B
:104A0000FBF726FF28B136A06168FBF721FF0028DD
:104A100008D10EA008F0E0FE15A008F0DDFE20A0F1
:104A200008F0DAFE30A06168FBF712FF0CE030A05E
:104A30006168FBF70DFF30A06168FBF709FF00BF5D
:104A40002FA008F0C9FE00BF00BF70BD726F737465
:104A50006F70696320747970652020207072696EB0
:104A60007420746F70696320747970650D0A00009A
:104A7000726F73746F706963206563686F202020A4
:104A80007072696E74206D657373616765732074ED
:104A90006F2073637265656E2E200D0A00000000A2
:104AA000726F73746F706963206C69737420202057
:104AB0007072696E7420696E666F726D6174696F71
:104AC0006E2061626F75742061637469766520740D
:104AD0006F706963732E200D0A0000002D680000BE
:104AE00068656C70000000006C6973740000000061
:104AF0006563686F00000000747970650000000055
:104B0000506172616D20697320746F6F206D616EEA
:104B10007920706C6561736520656E7465722061C3
:104B20006761696E210D0A002DE9F04F87B00746D5
:104B3000884678680EF0ECF900225D4BCDE9000163
:104B40000DF0D6FECDE902010DF03CFE0446B8683A
:104B50000EF0DEF90022564BCDE900010DF0C8FE43
:104B6000CDE902010DF02EFE0546F8680EF0D0F9F1
:104B700000224F4BCDE900010DF0BAFECDE9020154
:104B80000DF020FE0646642194FBF1F10691201EF3
:104B900001DB014600E04142642291FBF2F302FB9B
:104BA00013110591642195FBF1F10491281E01DB9D
:104BB000014600E04142642291FBF2F302FB13192B
:104BC000642196FBF1FA301E01DB014600E0414210
:104BD000642291FBF2F302FB131B8DE8000E35A05B
:104BE000DDE90432069908F0F7FDD8F804000EF06C
:104BF0008FF900222E4BCDE900010DF079FECDE9B1
:104C000002010DF0DFFD0446D8F808000EF080F92F
:104C10000022274BCDE900010DF06AFECDE902012B
:104C20000DF0D0FD0546D8F80C000EF071F9002209
:104C30001F4BCDE900010DF05BFECDE902010DF047
:104C4000C1FD0646642194FBF1F10691201E01DBB3
:104C5000014600E04142642291FBF2F302FB131192
:104C60000591642195FBF1F10491281E01DB0146B9
:104C700000E04142642291FBF2F302FB131964212C
:104C800096FBF1FA301E01DB014600E0414264224E
:104C900091FBF2F302FB131B8DE8000E0FA0DDE980
:104CA0000432069908F098FD07B0BDE8F08F0000C7
:104CB00000005940616363656C3A20783A25642EA0
:104CC000253032642C20793A25642E253032642C2C
:104CD000207A3A25642E253032640A006779726F93
:104CE0003A20783A25642E253032642C20793A25F2
:104CF000642E253032642C207A3A25642E253032F9
:104D0000640A00002DE9F04F85B08046894692463E
:104D10009B460E9C2A4903C90DF00EFB0546294906
:104D200003C90DF009FB0646274903C90DF004FB32
:104D3000074633463A46214601A8009500F03EFA60
:104D4000019810F1F50F02DA6FF0F40005E0019818
:104D5000F52801DDF52000E001981C490861029862
:104D600010F1F50F02DA6FF0F40005E00298F52873
:104D700001DDF52000E002981449C860039810F1A5
:104D8000F50F02DA6FF0F40005E00398F52801DD75
:104D9000F52000E003980D494860049810F1F50FE4
:104DA00002DA6FF0F40005E00498F52801DDF52043
:104DB00000E004980549886005B0BDE8F08F000068
:104DC00008000020180000201000002038070020F4
:104DD0000021054A116051600020044A10605060B3
:104DE000034A116051607047100000201800002035
:104DF000080000202DE9F0478AB0044608A93F4882
:104E0000006804F093FFBDF920000EF0F9F9824626
:104E1000A1690EF0A9F881460EF07AF80746002243
:104E2000374B0DF077FB05460DF086FAA064BDF90F
:104E300022000EF0E5F98246E1690EF095F8814610
:104E40000EF066F8074600222D4B0DF063FB054679
:104E50000DF072FAE064BDF924000EF0D1F982463B
:104E6000216A0EF081F881460EF052F807460022C2
:104E7000234B0DF04FFB05460DF05EFA20652078C0
:104E800001280FD104F14401684600F041FB0546BA
:104E900004F1340104A800F03BFB06462946FFF765
:104EA00043FE27E0207802280FD104F14401684630
:104EB00000F02EFB054604F1340104A800F028FBA5
:104EC00006462946FFF7A0FB14E02078032811D1FD
:104ED0000020207004F14401684600F019FB0546EB
:104EE00004F1340104A800F013FB06462946FFF73D
:104EF0001BFE00BF0AB0BDE8F08700002C040020B4
:104F0000008076402DE9FC47044669462048006849
:104F100004F0BAFEBDF900000EF072F98246A168F5
:104F20000EF022F881460DF0F3FF07460022194BE0
:104F30000DF0F0FA05460DF0FFF9A063BDF902008F
:104F40000EF05EF98246E1680EF00EF881460DF033
:104F5000DFFF074600220F4B0DF0DCFA05460DF08F
:104F6000EBF9E063BDF904000EF04AF982462169CD
:104F70000DF0FAFF81460DF0CBFF07460022054BEE
:104F80000DF0C8FA05460DF0D7F92064BDE8FC879E
:104F90002C040020008076402DE9F0470446194893
:104FA000A16A0DF0E1FF81460DF0B2FF0746002235
:104FB000154B0DF0AFFA05460DF0BEF9A06511488E
:104FC000E16A0DF0D1FF81460DF0A2FF07460022F5
:104FD0000D4B0DF09FFA05460DF0AEF9E06509485E
:104FE000216B0DF0C1FF81460DF092FF07460022B4
:104FF000054B0DF08FFA05460DF09EF92066BDE8D1
:10500000F08700000000B4430080764010B50446ED
:105010000AA008F0E1FB00210EA004F0B9FF0F493F
:1050200008600846006820B90DA008F0D5FB0120F3
:1050300010BD11A008F0D0FB0020F9E7496D7520E4
:1050400074797065203A204D5055363035302E2E0B
:105050002E0D0A0069326331000000002C0400208C
:105060006D70753678787820696E6974206661692C
:105070006C65640A000000006D70753678787820E1
:10508000696E697420737563636565640A00000066
:105090002DE9F04F97B083460C4615461E46DDE9D4
:1050A000209AA819484400EB0A07F91707EB9171F9
:1050B00088100DF0B6FBCDE9120100223C4BDDE972
:1050C00012010DF027FACDE910013A4A3A4BD4E922
:1050D0000A7138460DF00CFCCDE90401DDE910231E
:1050E0000DF006FCCDE906010DF026F9149068429A
:1050F00030444844A0EB0A07F91707EB9171881078
:105100000DF08FFBCDE90E010022294BDDE90E01E8
:105110000DF000FACDE90C01264A274BD4E90A71BB
:1051200038460DF0E5FBCDE90401DDE90C230DF077
:10513000DFFBCDE906010DF0FFF815906842304421
:10514000A0EB090000EB0A07F91707EB9171881033
:105150000DF067FBCDE90A010022154BDDE90A01DC
:105160000DF0D8F9CDE90801206B0DF0D1FECDE9A5
:105170000401104A104BD4E90A7138460DF0B8FB0F
:10518000CDE90001DDE908230DF0B2FBCDE9020114
:10519000DDE904230DF0BEF9CDE906010DF0CCF8F0
:1051A000169014A807C88BE8070017B0BDE8F08F69
:1051B00000004E404AD8124DFB2109402DE9FF471F
:1051C00005460C4616461F46DDF830802C49304611
:1051D0000EF076F820602A4938460EF071F86060CB
:1051E000274940460EF06CF8A060216BA0680EF0D5
:1051F00067F82061E16820680DF024FF6061E168D4
:1052000060680DF01FFFA061D4E903100DF01AFFD4
:10521000E061D4E905010EF051F98246E1690DF033
:10522000A3FE81460DF0D0FF0090D4E905010DF0FA
:105230009BFE8246E1690DF097FE81460DF0C4FFAA
:105240000290D4E905010DF08FFE8246E1690EF06F
:1052500035F981460DF0B8FF0190D4E905010EF053
:105260002DF98246E1690EF029F981460DF0ACFF77
:1052700003909DE80F0085E80F00BDE8FF87000060
:10528000000070422DE9FF4704460F4690469946BC
:10529000DDF830A040460DF03BFEC4E90A01D4E938
:1052A0000A532A46124813490DF022FBCDE90201A8
:1052B0000DF042F8E0602762C4F8309000254FF00E
:1052C000804650460DF0ADFA02460B46CDE900018E
:1052D0002846314605F0DEFB0022074BCDE90201EE
:1052E0000DF02CFDC4E90E01204604B0BDE8F087A6
:1052F0004AD8124DFB2109400000F03F11F1F50F93
:1053000002DA6FF0F40204E0F52901DDF52200E095
:105310000A46C26042600261826070472DE9F04136
:1053200004460D4616461F463B4632462946A069AE
:1053300000F016FB3B4632462946E06900F010FBC0
:105340003B4632462946206A00F00AFB3B4632467D
:105350002946606A00F004FBBDE8F08110B5044600
:105360002169A06900F000FBE168E06900F0FCFA47
:105370006168206A00F0F8FAA168606A00F0F4FA47
:1053800010BD000010B504460CA006F0E9FF6061F6
:105390000122D4E9051000F037FB00226169E069C1
:1053A00000F032FB01226169206A00F02DFB00222F
:1053B0006169606A00F028FB10BD000070776D38ED
:1053C000000000007CB50446606806F0C9FF1D4976
:1053D00008600846006800B97CBD00231A461A49D7
:1053E0001A4809F0A5FA4FF480711648006806F0D3
:1053F000F5FF17491348006807F0AEF9154903C9CE
:10540000CDE9000120680090019820F00F000830DD
:105410000190019820F030000190019820F0C00028
:1054200001906A4603210748006806F04FFF0A48CA
:1054300009F033FF05462A460749204600F018F8D0
:1054400000BFC9E70000002088490108A805002026
:1054500029440008A04B01088F49010810B50446F3
:105460000AF03AFC4FF47A714843B0FBF1F010BDFA
:1054700070B506460C4615462B46224600210248CA
:10548000006807F0A9F970BD0000002070B505465E
:105490000E4600243119281D00F016F80444311975
:1054A00005F1140000F010F80444204670BD00001F
:1054B0000146014870470000A4490108014601481F
:1054C00070470000C549010870B505460E46002426
:1054D0003019291D00F078F90444301905F108014C
:1054E00000F072F90444301905F10C0100F06CF978
:1054F0000444204670BD000001460148704700008A
:10550000D94901080146014870470000FA490108DD
:10551000044A054A02604A6842608A688260CA6832
:10552000C2607047184901084848010810B5044690
:10553000204600F07FF904460348206000206060A8
:10554000A060E060204610BD484801084A684260FB
:105550008A688260CA68C26070472DE9F84F0646C3
:105560000D4600242F5D2819407847EA00272819A6
:10557000807847EA00472819C07847EA0067241D69
:105580007068B84204D2B900F068FAF7CFFEF06054
:10559000776000201FE0002100912A5D00991143EF
:1055A00000912A195278009941EA022100912A19A2
:1055B0009278009941EA024100912A19D278009923
:1055C00041EA026100910099B160241DD6E90221EF
:1055D00041F82020401C71688142DCD815F8048015
:1055E0002819407848EA00282819807848EA0048B5
:1055F0002819C07848EA0068241D3069404505D262
:105600004FEA8801B069FAF791FEB061C6F81080E0
:1056100000201FE0002100912A5D009911430091B4
:105620002A195278009941EA022100912A199278A8
:10563000009941EA024100912A19D278009941EA81
:105640000261009100997161241DD6E9052141F89C
:105650002020401C31698142DCD815F804902819BB
:10566000407849EA00292819807849EA0049281930
:10567000C07849EA0069241DF069484505D24FEA1F
:105680008901706AFAF752FE7062C6F81C904FF0FA
:10569000000A1EE0291968460CF032FE241D20463F
:1056A00003E02A5C411E6A54401C00992144814257
:1056B000F7D8002100982044401E29542819401E84
:1056C000306200980444D6E9081040F82A100AF124
:1056D000010AF0695045DDD82046BDE8F88F00008A
:1056E0000146014870470000104A01080146014880
:1056F00070470000963601080146014870470000D7
:10570000314A01080146014870470000524A010829
:105710000146014870470000664A010801460148F9
:1057200070470000874A0108014901607047000086
:10573000EC48010870B5074D0C68B4FBF5F605FBA5
:1057400016430C68B4FBF5F20468144404600B6063
:1057500070BD000000CA9A3B2DE9F341044601AF39
:105760003868C0F3C7560EB106F560763D68002074
:1057700004F8010B04F8010B04F8010B6807000E94
:1057800004F8010BC5F3C70004F8010BC5F3C720EB
:1057900004F8010BF02000EA0610C5F3C3410843EA
:1057A00004F8010BC6F3061004F8010B0021019860
:1057B0000DF052FD05D214F8010C40F0800004F801
:1057C000010C0820BDE8FC8130B502460B461946A5
:1057D000D21C12F8015B6809086012F8010B0D6811
:1057E00045EAC000086012F8010B0D6845EAC020C8
:1057F0000860157805F00F05086840EAC5400860A4
:1058000012F8015B2C09107800F07F0044EA0014C4
:105810002CB104F180000D6845EAC050086012F810
:10582000015B05F080000D6845EA00600860082013
:1058300030BD0000014901607047000018490108AF
:1058400070B504460D46D4E90210026813682A4672
:10585000984770BD01604260036170472DE9F041D7
:105860000446204600F04AF805462846E1680DF057
:10587000F3FD00D2E568D4E902100DF01FFE0746E3
:105880002846A1680DF01AFE804639460DF0DAFB75
:10589000064602490DF014FDBDE8F0810000C84243
:1058A00010B5044607A006F05BFD2060206818B91B
:1058B00004A106A007F090FF0521206806F0D2F8A9
:1058C00010BD00006164633100000000616463206A
:1058D00073616D706C652072756E206661696C65B0
:1058E00064212063616E27742066696E64202573CD
:1058F00020646576696365210A0000002DE9FE4F8A
:1059000082460521DAF8000006F0CAF802900298F3
:105910000DF08EFC83460DF0FBFA4FF066320A4B19
:10592000CDE900010CF0E4FF06460022074B0CF025
:10593000F1FD0446064A074B0CF0DAFF80460CF0F6
:10594000FBFCBDE8FE8F000066660A4000FEAF402B
:10595000CDCCCCCCCCCC274041608260C3607047BA
:105960008160C260036170472DE9F05F04460D4617
:10597000204600F0D9F8E06AA84203DDE06A801E04
:10598000E06205E0E06AA84202DAE06A801CE062B8
:10599000E16A2068401A2062206A0DF031FC8346DB
:1059A000E1680DF08DFC8046A26A216A881A0DF02C
:1059B00027FC8346A1680DF083FC814641460DF02B
:1059C000D3FA0746606A0DF01BFC824639460DF09B
:1059D000CBFA06460DF0F8FB6062606AB0F5FA7F1C
:1059E00002DD4FF4FA706062606A10F5FA7F01DA46
:1059F00004486062206AA0622046616A00F01CF8D8
:105A0000BDE8F09F0CFEFFFF70B504460D4616463C
:105A1000256484F844600021206D08F02BFD0021EE
:105A2000606D08F027FD2846A16D08F020FE0121D9
:105A3000206B06F0D3FC70BD70B504460D4694F89B
:105A4000440000B16D42C5EB051045007DB9002151
:105A5000206D08F055FD0021606D08F051FD002318
:105A600043F2D402A16D206C08F016FE70BD002D2B
:105A700008DD0021206D08F043FD0121606D08F074
:105A80003FFD08E00121206D08F03AFD0021606D26
:105A900008F036FD6D422B4643F2D402A16D206C16
:105AA00008F0FAFD00BFE1E710B50446012304F158
:105AB00048020021206B06F0DBFDD4E91201401AF8
:105AC00047F23051884206DCD4E91210401A47F2FE
:105AD000305188420DDD0CA0D4E9121207F07CFE93
